:030000000200CD2E
:0C00CD00787FE4F6D8FD75813202011442
:10025A00012F00011C00010A00010800011D000114
:0C026A001B00011E000231000001090011
:0C029300C2B6C2B785A01E12023480FE65
:10023400758921758DFD758BFDD28E758C3C758A03
:10024400B0D28CD2A9D288D2A8C29FD29EC29DD24B
:060254009CD2ACD2AF22E7
:100277000508E508B43C14E4F508050AE50AB43CAA
:0C02870002051CE51CB41803E4F51C2261
:10000E00EE7011EF600C146006147008C2B622D2A6
:05001E00B622B2B6227B
:06029F00D2A8751D022229
:10015900750BAA750C0A750DF0851E0E750F0785AE
:100169008A10858C11852F12850813850A14851C20
:1001790015E50C250DFFEF250EFFEF250FFFEF25E8
:1001890010FFEF2511FFEF2512FFEF2513FFEF25D4
:0C01990014FFEF2515FF8F167517662266
:1001D900751D01D2B7E4FFFEC3EF940DEE64809460
:1001E9008050130FEF70010E14240BF8E6F59930C7
:0D01F90099FDC29980E2C2B7751B01D2A822
:0102060022D5
:03000B000201A54A
:1001A500C0E0C0D075D000C006C007052FE52FB44C
:1001B5000A07AF1D7E0012000EE52FB4140D1202C2
:1001C50077752F00AF1D7E0012000ED007D006D028
:0401D500D0D0E03274
:03000300020207EF
:10020700C0E0C0D075D000C004C006C007C2A805B2
:100217001BE51B24FE6008047008751D018003128E
:0D0227000159D007D006D004D0D0D0E0326D
:03002300020026B2
:10002600C0E0C0D075D000C000C004C006C007C282
:1000360098E51F64AA600B859930E530B4AA03855C
:10004600991FE51FB4AA0F741F2532F8A699053229
:10005600E53270020531741E2532F8E66466705A80
:10006600E521651E6005E521F4702EE5202521FFBA
:10007600E433FE7C00EF2522FFEC3EFEEF2523FF56
:100086008F09E509B52412E52324FD6009240270D1
:100096000812029F80031201D9753100753200746F
:1000A6001F2532F876000532E532700205316410FC
:1000B600453170EB753100753200D007D006D0049B
:0700C600D000D0D0D0E032E1
:1000D900020293E493A3F8E493A34003F68001F2A8
:1000E90008DFF48029E493A3F85407240CC8C33328
:1000F900C4540F4420C8834004F456800146F6DFF7
:10010900E4800B010204081020408090025AE47E2A
:10011900019360BCA3FF543F30E509541FFEE493EB
:10012900A360010ECF54C025E060A840B8E493A3B2
:10013900FAE493A3F8E493A3C8C582C8CAC583CADD
:10014900F0A3C8C582C8CAC583CADFE9DEE780BE95
:010276000087
:00000001FF
